{
	"student.sol": {
		"StudentRegistry": {
			"abi": [
				{
					"anonymous": false,
					"inputs": [
						{
							"indexed": true,
							"internalType": "address",
							"name": "sender",
							"type": "address"
						},
						{
							"indexed": false,
							"internalType": "uint256",
							"name": "value",
							"type": "uint256"
						}
					],
					"name": "ReceivedEther",
					"type": "event"
				},
				{
					"stateMutability": "payable",
					"type": "fallback"
				},
				{
					"inputs": [
						{
							"internalType": "string",
							"name": "name",
							"type": "string"
						},
						{
							"internalType": "uint256",
							"name": "age",
							"type": "uint256"
						}
					],
					"name": "addStudent",
					"outputs": [],
					"stateMutability": "nonpayable",
					"type": "function"
				},
				{
					"inputs": [
						{
							"internalType": "uint256",
							"name": "index",
							"type": "uint256"
						}
					],
					"name": "getStudent",
					"outputs": [
						{
							"internalType": "string",
							"name": "",
							"type": "string"
						},
						{
							"internalType": "uint256",
							"name": "",
							"type": "uint256"
						}
					],
					"stateMutability": "view",
					"type": "function"
				},
				{
					"inputs": [],
					"name": "getStudentCount",
					"outputs": [
						{
							"internalType": "uint256",
							"name": "",
							"type": "uint256"
						}
					],
					"stateMutability": "view",
					"type": "function"
				},
				{
					"stateMutability": "payable",
					"type": "receive"
				}
			],
			"devdoc": {
				"kind": "dev",
				"methods": {},
				"version": 1
			},
			"evm": {
				"assembly": "    /* \"student.sol\":67:1108  contract StudentRegistry {... */\n  mstore(0x40, 0x80)\n  callvalue\n  dup1\n  iszero\n  tag_1\n  jumpi\n  0x00\n  dup1\n  revert\ntag_1:\n  pop\n  dataSize(sub_0)\n  dup1\n  dataOffset(sub_0)\n  0x00\n  codecopy\n  0x00\n  return\nstop\n\nsub_0: assembly {\n        /* \"student.sol\":67:1108  contract StudentRegistry {... */\n      mstore(0x40, 0x80)\n      jumpi(tag_1, lt(calldatasize, 0x04))\n      shr(0xe0, calldataload(0x00))\n      dup1\n      0x0e5eeef7\n      eq\n      tag_3\n      jumpi\n      dup1\n      0x41e0c407\n      eq\n      tag_4\n      jumpi\n      dup1\n      0x642f9163\n      eq\n      tag_5\n      jumpi\n      jump(tag_2)\n    tag_1:\n      jumpi(tag_2, calldatasize)\n        /* \"student.sol\":505:515  msg.sender */\n      caller\n        /* \"student.sol\":491:527  ReceivedEther(msg.sender, msg.value) */\n      0xffffffffffffffffffffffffffffffffffffffff\n      and\n      0xa419615bc8fda4c87663805ee2a3597a6d71c1d476911d9892f340d965bc7bf1\n        /* \"student.sol\":517:526  msg.value */\n      callvalue\n        /* \"student.sol\":491:527  ReceivedEther(msg.sender, msg.value) */\n      mload(0x40)\n      tag_8\n      swap2\n      swap1\n      tag_9\n      jump\t// in\n    tag_8:\n      mload(0x40)\n      dup1\n      swap2\n      sub\n      swap1\n      log2\n        /* \"student.sol\":67:1108  contract StudentRegistry {... */\n      stop\n    tag_2:\n        /* \"student.sol\":643:653  msg.sender */\n      caller\n        /* \"student.sol\":629:665  ReceivedEther(msg.sender, msg.value) */\n      0xffffffffffffffffffffffffffffffffffffffff\n      and\n      0xa419615bc8fda4c87663805ee2a3597a6d71c1d476911d9892f340d965bc7bf1\n        /* \"student.sol\":655:664  msg.value */\n      callvalue\n        /* \"student.sol\":629:665  ReceivedEther(msg.sender, msg.value) */\n      mload(0x40)\n      tag_12\n      swap2\n      swap1\n      tag_9\n      jump\t// in\n    tag_12:\n      mload(0x40)\n      dup1\n      swap2\n      sub\n      swap1\n      log2\n        /* \"student.sol\":67:1108  contract StudentRegistry {... */\n      stop\n        /* \"student.sol\":678:788  function addStudent(string memory name, uint256 age) public {... */\n    tag_3:\n      callvalue\n      dup1\n      iszero\n      tag_13\n      jumpi\n      0x00\n      dup1\n      revert\n    tag_13:\n      pop\n      tag_14\n      0x04\n      dup1\n      calldatasize\n      sub\n      dup2\n      add\n      swap1\n      tag_15\n      swap2\n      swap1\n      tag_16\n      jump\t// in\n    tag_15:\n      tag_17\n      jump\t// in\n    tag_14:\n      stop\n        /* \"student.sol\":1010:1106  function getStudentCount() public view returns (uint256) {... */\n    tag_4:\n      callvalue\n      dup1\n      iszero\n      tag_18\n      jumpi\n      0x00\n      dup1\n      revert\n    tag_18:\n      pop\n      tag_19\n      tag_20\n      jump\t// in\n    tag_19:\n      mload(0x40)\n      tag_21\n      swap2\n      swap1\n      tag_9\n      jump\t// in\n    tag_21:\n      mload(0x40)\n      dup1\n      swap2\n      sub\n      swap1\n      return\n        /* \"student.sol\":794:1004  function getStudent(uint256 index) public view returns (string memory, uint256) {... */\n    tag_5:\n      callvalue\n      dup1\n      iszero\n      tag_22\n      jumpi\n      0x00\n      dup1\n      revert\n    tag_22:\n      pop\n      tag_23\n      0x04\n      dup1\n      calldatasize\n      sub\n      dup2\n      add\n      swap1\n      tag_24\n      swap2\n      swap1\n      tag_25\n      jump\t// in\n    tag_24:\n      tag_26\n      jump\t// in\n    tag_23:\n      mload(0x40)\n      tag_27\n      swap3\n      swap2\n      swap1\n      tag_28\n      jump\t// in\n    tag_27:\n      mload(0x40)\n      dup1\n      swap2\n      sub\n      swap1\n      return\n        /* \"student.sol\":678:788  function addStudent(string memory name, uint256 age) public {... */\n    tag_17:\n        /* \"student.sol\":748:756  students */\n      0x00\n        /* \"student.sol\":762:780  Student(name, age) */\n      mload(0x40)\n      dup1\n      0x40\n      add\n      0x40\n      mstore\n      dup1\n        /* \"student.sol\":770:774  name */\n      dup5\n        /* \"student.sol\":762:780  Student(name, age) */\n      dup2\n      mstore\n      0x20\n      add\n        /* \"student.sol\":776:779  age */\n      dup4\n        /* \"student.sol\":762:780  Student(name, age) */\n      dup2\n      mstore\n      pop\n        /* \"student.sol\":748:781  students.push(Student(name, age)) */\n      swap1\n      dup1\n      0x01\n      dup2\n      sload\n      add\n      dup1\n      dup3\n      sstore\n      dup1\n      swap2\n      pop\n      pop\n      0x01\n      swap1\n      sub\n      swap1\n      0x00\n      mstore\n      keccak256(0x00, 0x20)\n      swap1\n      0x02\n      mul\n      add\n      0x00\n      swap1\n      swap2\n      swap1\n      swap2\n      swap1\n      swap2\n      pop\n      0x00\n      dup3\n      add\n      mload\n      dup2\n      0x00\n      add\n      swap1\n      dup2\n      tag_31\n      swap2\n      swap1\n      tag_32\n      jump\t// in\n    tag_31:\n      pop\n      0x20\n      dup3\n      add\n      mload\n      dup2\n      0x01\n      add\n      sstore\n      pop\n      pop\n        /* \"student.sol\":678:788  function addStudent(string memory name, uint256 age) public {... */\n      pop\n      pop\n      jump\t// out\n        /* \"student.sol\":1010:1106  function getStudentCount() public view returns (uint256) {... */\n    tag_20:\n        /* \"student.sol\":1058:1065  uint256 */\n      0x00\n        /* \"student.sol\":1084:1092  students */\n      dup1\n        /* \"student.sol\":1084:1099  students.length */\n      dup1\n      sload\n      swap1\n      pop\n        /* \"student.sol\":1077:1099  return students.length */\n      swap1\n      pop\n        /* \"student.sol\":1010:1106  function getStudentCount() public view returns (uint256) {... */\n      swap1\n      jump\t// out\n        /* \"student.sol\":794:1004  function getStudent(uint256 index) public view returns (string memory, uint256) {... */\n    tag_26:\n        /* \"student.sol\":850:863  string memory */\n      0x60\n        /* \"student.sol\":865:872  uint256 */\n      0x00\n        /* \"student.sol\":900:908  students */\n      dup1\n        /* \"student.sol\":900:915  students.length */\n      dup1\n      sload\n      swap1\n      pop\n        /* \"student.sol\":892:897  index */\n      dup4\n        /* \"student.sol\":892:915  index < students.length */\n      lt\n        /* \"student.sol\":884:937  require(index < students.length, \"Student not found\") */\n      tag_35\n      jumpi\n      mload(0x40)\n      0x08c379a000000000000000000000000000000000000000000000000000000000\n      dup2\n      mstore\n      0x04\n      add\n      tag_36\n      swap1\n      tag_37\n      jump\t// in\n    tag_36:\n      mload(0x40)\n      dup1\n      swap2\n      sub\n      swap1\n      revert\n    tag_35:\n        /* \"student.sol\":955:963  students */\n      0x00\n        /* \"student.sol\":964:969  index */\n      dup4\n        /* \"student.sol\":955:970  students[index] */\n      dup2\n      sload\n      dup2\n      lt\n      tag_38\n      jumpi\n      tag_39\n      tag_40\n      jump\t// in\n    tag_39:\n    tag_38:\n      swap1\n      0x00\n      mstore\n      keccak256(0x00, 0x20)\n      swap1\n      0x02\n      mul\n      add\n        /* \"student.sol\":955:975  students[index].name */\n      0x00\n      add\n        /* \"student.sol\":977:985  students */\n      0x00\n        /* \"student.sol\":986:991  index */\n      dup5\n        /* \"student.sol\":977:992  students[index] */\n      dup2\n      sload\n      dup2\n      lt\n      tag_42\n      jumpi\n      tag_43\n      tag_40\n      jump\t// in\n    tag_43:\n    tag_42:\n      swap1\n      0x00\n      mstore\n      keccak256(0x00, 0x20)\n      swap1\n      0x02\n      mul\n      add\n        /* \"student.sol\":977:996  students[index].age */\n      0x01\n      add\n      sload\n        /* \"student.sol\":947:997  return (students[index].name, students[index].age) */\n      dup2\n      dup1\n      sload\n      tag_45\n      swap1\n      tag_46\n      jump\t// in\n    tag_45:\n      dup1\n      0x1f\n      add\n      0x20\n      dup1\n      swap2\n      div\n      mul\n      0x20\n      add\n      mload(0x40)\n      swap1\n      dup2\n      add\n      0x40\n      mstore\n      dup1\n      swap3\n      swap2\n      swap1\n      dup2\n      dup2\n      mstore\n      0x20\n      add\n      dup3\n      dup1\n      sload\n      tag_47\n      swap1\n      tag_46\n      jump\t// in\n    tag_47:\n      dup1\n      iszero\n      tag_48\n      jumpi\n      dup1\n      0x1f\n      lt\n      tag_49\n      jumpi\n      0x0100\n      dup1\n      dup4\n      sload\n      div\n      mul\n      dup4\n      mstore\n      swap2\n      0x20\n      add\n      swap2\n      jump(tag_48)\n    tag_49:\n      dup3\n      add\n      swap2\n      swap1\n      0x00\n      mstore\n      keccak256(0x00, 0x20)\n      swap1\n    tag_50:\n      dup2\n      sload\n      dup2\n      mstore\n      swap1\n      0x01\n      add\n      swap1\n      0x20\n      add\n      dup1\n      dup4\n      gt\n      tag_50\n      jumpi\n      dup3\n      swap1\n      sub\n      0x1f\n      and\n      dup3\n      add\n      swap2\n    tag_48:\n      pop\n      pop\n      pop\n      pop\n      pop\n      swap2\n      pop\n      swap2\n      pop\n      swap2\n      pop\n        /* \"student.sol\":794:1004  function getStudent(uint256 index) public view returns (string memory, uint256) {... */\n      swap2\n      pop\n      swap2\n      jump\t// out\n        /* \"#utility.yul\":7:84   */\n    tag_51:\n        /* \"#utility.yul\":44:51   */\n      0x00\n        /* \"#utility.yul\":73:78   */\n      dup2\n        /* \"#utility.yul\":62:78   */\n      swap1\n      pop\n        /* \"#utility.yul\":7:84   */\n      swap2\n      swap1\n      pop\n      jump\t// out\n        /* \"#utility.yul\":90:208   */\n    tag_52:\n        /* \"#utility.yul\":177:201   */\n      tag_93\n        /* \"#utility.yul\":195:200   */\n      dup2\n        /* \"#utility.yul\":177:201   */\n      tag_51\n      jump\t// in\n    tag_93:\n        /* \"#utility.yul\":172:175   */\n      dup3\n        /* \"#utility.yul\":165:202   */\n      mstore\n        /* \"#utility.yul\":90:208   */\n      pop\n      pop\n      jump\t// out\n        /* \"#utility.yul\":214:436   */\n    tag_9:\n        /* \"#utility.yul\":307:311   */\n      0x00\n        /* \"#utility.yul\":345:347   */\n      0x20\n        /* \"#utility.yul\":334:343   */\n      dup3\n        /* \"#utility.yul\":330:348   */\n      add\n        /* \"#utility.yul\":322:348   */\n      swap1\n      pop\n        /* \"#utility.yul\":358:429   */\n      tag_95\n        /* \"#utility.yul\":426:427   */\n      0x00\n        /* \"#utility.yul\":415:424   */\n      dup4\n        /* \"#utility.yul\":411:428   */\n      add\n        /* \"#utility.yul\":402:408   */\n      dup5\n        /* \"#utility.yul\":358:429   */\n      tag_52\n      jump\t// in\n    tag_95:\n        /* \"#utility.yul\":214:436   */\n      swap3\n      swap2\n      pop\n      pop\n      jump\t// out\n        /* \"#utility.yul\":442:517   */\n    tag_53:\n        /* \"#utility.yul\":475:481   */\n      0x00\n        /* \"#utility.yul\":508:510   */\n      0x40\n        /* \"#utility.yul\":502:511   */\n      mload\n        /* \"#utility.yul\":492:511   */\n      swap1\n      pop\n        /* \"#utility.yul\":442:517   */\n      swap1\n      jump\t// out\n        /* \"#utility.yul\":523:640   */\n    tag_54:\n        /* \"#utility.yul\":632:633   */\n      0x00\n        /* \"#utility.yul\":629:630   */\n      dup1\n        /* \"#utility.yul\":622:634   */\n      revert\n        /* \"#utility.yul\":646:763   */\n    tag_55:\n        /* \"#utility.yul\":755:756   */\n      0x00\n        /* \"#utility.yul\":752:753   */\n      dup1\n        /* \"#utility.yul\":745:757   */\n      revert\n        /* \"#utility.yul\":769:886   */\n    tag_56:\n        /* \"#utility.yul\":878:879   */\n      0x00\n        /* \"#utility.yul\":875:876   */\n      dup1\n        /* \"#utility.yul\":868:880   */\n      revert\n        /* \"#utility.yul\":892:1009   */\n    tag_57:\n        /* \"#utility.yul\":1001:1002   */\n      0x00\n        /* \"#utility.yul\":998:999   */\n      dup1\n        /* \"#utility.yul\":991:1003   */\n      revert\n        /* \"#utility.yul\":1015:1117   */\n    tag_58:\n        /* \"#utility.yul\":1056:1062   */\n      0x00\n        /* \"#utility.yul\":1107:1109   */\n      0x1f\n        /* \"#utility.yul\":1103:1110   */\n      not\n        /* \"#utility.yul\":1098:1100   */\n      0x1f\n        /* \"#utility.yul\":1091:1096   */\n      dup4\n        /* \"#utility.yul\":1087:1101   */\n      add\n        /* \"#utility.yul\":1083:1111   */\n      and\n        /* \"#utility.yul\":1073:1111   */\n      swap1\n      pop\n        /* \"#utility.yul\":1015:1117   */\n      swap2\n      swap1\n      pop\n      jump\t// out\n        /* \"#utility.yul\":1123:1303   */\n    tag_59:\n        /* \"#utility.yul\":1171:1248   */\n      0x4e487b7100000000000000000000000000000000000000000000000000000000\n        /* \"#utility.yul\":1168:1169   */\n      0x00\n        /* \"#utility.yul\":1161:1249   */\n      mstore\n        /* \"#utility.yul\":1268:1272   */\n      0x41\n        /* \"#utility.yul\":1265:1266   */\n      0x04\n        /* \"#utility.yul\":1258:1273   */\n      mstore\n        /* \"#utility.yul\":1292:1296   */\n      0x24\n        /* \"#utility.yul\":1289:1290   */\n      0x00\n        /* \"#utility.yul\":1282:1297   */\n      revert\n        /* \"#utility.yul\":1309:1590   */\n    tag_60:\n        /* \"#utility.yul\":1392:1419   */\n      tag_104\n        /* \"#utility.yul\":1414:1418   */\n      dup3\n        /* \"#utility.yul\":1392:1419   */\n      tag_58\n      jump\t// in\n    tag_104:\n        /* \"#utility.yul\":1384:1390   */\n      dup2\n        /* \"#utility.yul\":1380:1420   */\n      add\n        /* \"#utility.yul\":1522:1528   */\n      dup2\n        /* \"#utility.yul\":1510:1520   */\n      dup2\n        /* \"#utility.yul\":1507:1529   */\n      lt\n        /* \"#utility.yul\":1486:1504   */\n      0xffffffffffffffff\n        /* \"#utility.yul\":1474:1484   */\n      dup3\n        /* \"#utility.yul\":1471:1505   */\n      gt\n        /* \"#utility.yul\":1468:1530   */\n      or\n        /* \"#utility.yul\":1465:1553   */\n      iszero\n      tag_105\n      jumpi\n        /* \"#utility.yul\":1533:1551   */\n      tag_106\n      tag_59\n      jump\t// in\n    tag_106:\n        /* \"#utility.yul\":1465:1553   */\n    tag_105:\n        /* \"#utility.yul\":1573:1583   */\n      dup1\n        /* \"#utility.yul\":1569:1571   */\n      0x40\n        /* \"#utility.yul\":1562:1584   */\n      mstore\n        /* \"#utility.yul\":1352:1590   */\n      pop\n        /* \"#utility.yul\":1309:1590   */\n      pop\n      pop\n      jump\t// out\n        /* \"#utility.yul\":1596:1725   */\n    tag_61:\n        /* \"#utility.yul\":1630:1636   */\n      0x00\n        /* \"#utility.yul\":1657:1677   */\n      tag_108\n      tag_53\n      jump\t// in\n    tag_108:\n        /* \"#utility.yul\":1647:1677   */\n      swap1\n      pop\n        /* \"#utility.yul\":1686:1719   */\n      tag_109\n        /* \"#utility.yul\":1714:1718   */\n      dup3\n        /* \"#utility.yul\":1706:1712   */\n      dup3\n        /* \"#utility.yul\":1686:1719   */\n      tag_60\n      jump\t// in\n    tag_109:\n        /* \"#utility.yul\":1596:1725   */\n      swap2\n      swap1\n      pop\n      jump\t// out\n        /* \"#utility.yul\":1731:2039   */\n    tag_62:\n        /* \"#utility.yul\":1793:1797   */\n      0x00\n        /* \"#utility.yul\":1883:1901   */\n      0xffffffffffffffff\n        /* \"#utility.yul\":1875:1881   */\n      dup3\n        /* \"#utility.yul\":1872:1902   */\n      gt\n        /* \"#utility.yul\":1869:1925   */\n      iszero\n      tag_111\n      jumpi\n        /* \"#utility.yul\":1905:1923   */\n      tag_112\n      tag_59\n      jump\t// in\n    tag_112:\n        /* \"#utility.yul\":1869:1925   */\n    tag_111:\n        /* \"#utility.yul\":1943:1972   */\n      tag_113\n        /* \"#utility.yul\":1965:1971   */\n      dup3\n        /* \"#utility.yul\":1943:1972   */\n      tag_58\n      jump\t// in\n    tag_113:\n        /* \"#utility.yul\":1935:1972   */\n      swap1\n      pop\n        /* \"#utility.yul\":2027:2031   */\n      0x20\n        /* \"#utility.yul\":2021:2025   */\n      dup2\n        /* \"#utility.yul\":2017:2032   */\n      add\n        /* \"#utility.yul\":2009:2032   */\n      swap1\n      pop\n        /* \"#utility.yul\":1731:2039   */\n      swap2\n      swap1\n      pop\n      jump\t// out\n        /* \"#utility.yul\":2045:2193   */\n    tag_63:\n        /* \"#utility.yul\":2143:2149   */\n      dup3\n        /* \"#utility.yul\":2138:2141   */\n      dup2\n        /* \"#utility.yul\":2133:2136   */\n      dup4\n        /* \"#utility.yul\":2120:2150   */\n      calldatacopy\n        /* \"#utility.yul\":2184:2185   */\n      0x00\n        /* \"#utility.yul\":2175:2181   */\n      dup4\n        /* \"#utility.yul\":2170:2173   */\n      dup4\n        /* \"#utility.yul\":2166:2182   */\n      add\n        /* \"#utility.yul\":2159:2186   */\n      mstore\n        /* \"#utility.yul\":2045:2193   */\n      pop\n      pop\n      pop\n      jump\t// out\n        /* \"#utility.yul\":2199:2624   */\n    tag_64:\n        /* \"#utility.yul\":2277:2282   */\n      0x00\n        /* \"#utility.yul\":2302:2368   */\n      tag_116\n        /* \"#utility.yul\":2318:2367   */\n      tag_117\n        /* \"#utility.yul\":2360:2366   */\n      dup5\n        /* \"#utility.yul\":2318:2367   */\n      tag_62\n      jump\t// in\n    tag_117:\n        /* \"#utility.yul\":2302:2368   */\n      tag_61\n      jump\t// in\n    tag_116:\n        /* \"#utility.yul\":2293:2368   */\n      swap1\n      pop\n        /* \"#utility.yul\":2391:2397   */\n      dup3\n        /* \"#utility.yul\":2384:2389   */\n      dup2\n        /* \"#utility.yul\":2377:2398   */\n      mstore\n        /* \"#utility.yul\":2429:2433   */\n      0x20\n        /* \"#utility.yul\":2422:2427   */\n      dup2\n        /* \"#utility.yul\":2418:2434   */\n      add\n        /* \"#utility.yul\":2467:2470   */\n      dup5\n        /* \"#utility.yul\":2458:2464   */\n      dup5\n        /* \"#utility.yul\":2453:2456   */\n      dup5\n        /* \"#utility.yul\":2449:2465   */\n      add\n        /* \"#utility.yul\":2446:2471   */\n      gt\n        /* \"#utility.yul\":2443:2555   */\n      iszero\n      tag_118\n      jumpi\n        /* \"#utility.yul\":2474:2553   */\n      tag_119\n      tag_57\n      jump\t// in\n    tag_119:\n        /* \"#utility.yul\":2443:2555   */\n    tag_118:\n        /* \"#utility.yul\":2564:2618   */\n      tag_120\n        /* \"#utility.yul\":2611:2617   */\n      dup5\n        /* \"#utility.yul\":2606:2609   */\n      dup3\n        /* \"#utility.yul\":2601:2604   */\n      dup6\n        /* \"#utility.yul\":2564:2618   */\n      tag_63\n      jump\t// in\n    tag_120:\n        /* \"#utility.yul\":2283:2624   */\n      pop\n        /* \"#utility.yul\":2199:2624   */\n      swap4\n      swap3\n      pop\n      pop\n      pop\n      jump\t// out\n        /* \"#utility.yul\":2644:2984   */\n    tag_65:\n        /* \"#utility.yul\":2700:2705   */\n      0x00\n        /* \"#utility.yul\":2749:2752   */\n      dup3\n        /* \"#utility.yul\":2742:2746   */\n      0x1f\n        /* \"#utility.yul\":2734:2740   */\n      dup4\n        /* \"#utility.yul\":2730:2747   */\n      add\n        /* \"#utility.yul\":2726:2753   */\n      slt\n        /* \"#utility.yul\":2716:2838   */\n      tag_122\n      jumpi\n        /* \"#utility.yul\":2757:2836   */\n      tag_123\n      tag_56\n      jump\t// in\n    tag_123:\n        /* \"#utility.yul\":2716:2838   */\n    tag_122:\n        /* \"#utility.yul\":2874:2880   */\n      dup2\n        /* \"#utility.yul\":2861:2881   */\n      calldataload\n        /* \"#utility.yul\":2899:2978   */\n      tag_124\n        /* \"#utility.yul\":2974:2977   */\n      dup5\n        /* \"#utility.yul\":2966:2972   */\n      dup3\n        /* \"#utility.yul\":2959:2963   */\n      0x20\n        /* \"#utility.yul\":2951:2957   */\n      dup7\n        /* \"#utility.yul\":2947:2964   */\n      add\n        /* \"#utility.yul\":2899:2978   */\n      tag_64\n      jump\t// in\n    tag_124:\n        /* \"#utility.yul\":2890:2978   */\n      swap2\n      pop\n        /* \"#utility.yul\":2706:2984   */\n      pop\n        /* \"#utility.yul\":2644:2984   */\n      swap3\n      swap2\n      pop\n      pop\n      jump\t// out\n        /* \"#utility.yul\":2990:3112   */\n    tag_66:\n        /* \"#utility.yul\":3063:3087   */\n      tag_126\n        /* \"#utility.yul\":3081:3086   */\n      dup2\n        /* \"#utility.yul\":3063:3087   */\n      tag_51\n      jump\t// in\n    tag_126:\n        /* \"#utility.yul\":3056:3061   */\n      dup2\n        /* \"#utility.yul\":3053:3088   */\n      eq\n        /* \"#utility.yul\":3043:3106   */\n      tag_127\n      jumpi\n        /* \"#utility.yul\":3102:3103   */\n      0x00\n        /* \"#utility.yul\":3099:3100   */\n      dup1\n        /* \"#utility.yul\":3092:3104   */\n      revert\n        /* \"#utility.yul\":3043:3106   */\n    tag_127:\n        /* \"#utility.yul\":2990:3112   */\n      pop\n      jump\t// out\n        /* \"#utility.yul\":3118:3257   */\n    tag_67:\n        /* \"#utility.yul\":3164:3169   */\n      0x00\n        /* \"#utility.yul\":3202:3208   */\n      dup2\n        /* \"#utility.yul\":3189:3209   */\n      calldataload\n        /* \"#utility.yul\":3180:3209   */\n      swap1\n      pop\n        /* \"#utility.yul\":3218:3251   */\n      tag_129\n        /* \"#utility.yul\":3245:3250   */\n      dup2\n        /* \"#utility.yul\":3218:3251   */\n      tag_66\n      jump\t// in\n    tag_129:\n        /* \"#utility.yul\":3118:3257   */\n      swap3\n      swap2\n      pop\n      pop\n      jump\t// out\n        /* \"#utility.yul\":3263:3917   */\n    tag_16:\n        /* \"#utility.yul\":3341:3347   */\n      0x00\n        /* \"#utility.yul\":3349:3355   */\n      dup1\n        /* \"#utility.yul\":3398:3400   */\n      0x40\n        /* \"#utility.yul\":3386:3395   */\n      dup4\n        /* \"#utility.yul\":3377:3384   */\n      dup6\n        /* \"#utility.yul\":3373:3396   */\n      sub\n        /* \"#utility.yul\":3369:3401   */\n      slt\n        /* \"#utility.yul\":3366:3485   */\n      iszero\n      tag_131\n      jumpi\n        /* \"#utility.yul\":3404:3483   */\n      tag_132\n      tag_54\n      jump\t// in\n    tag_132:\n        /* \"#utility.yul\":3366:3485   */\n    tag_131:\n        /* \"#utility.yul\":3552:3553   */\n      0x00\n        /* \"#utility.yul\":3541:3550   */\n      dup4\n        /* \"#utility.yul\":3537:3554   */\n      add\n        /* \"#utility.yul\":3524:3555   */\n      calldataload\n        /* \"#utility.yul\":3582:3600   */\n      0xffffffffffffffff\n        /* \"#utility.yul\":3574:3580   */\n      dup2\n        /* \"#utility.yul\":3571:3601   */\n      gt\n        /* \"#utility.yul\":3568:3685   */\n      iszero\n      tag_133\n      jumpi\n        /* \"#utility.yul\":3604:3683   */\n      tag_134\n      tag_55\n      jump\t// in\n    tag_134:\n        /* \"#utility.yul\":3568:3685   */\n    tag_133:\n        /* \"#utility.yul\":3709:3772   */\n      tag_135\n        /* \"#utility.yul\":3764:3771   */\n      dup6\n        /* \"#utility.yul\":3755:3761   */\n      dup3\n        /* \"#utility.yul\":3744:3753   */\n      dup7\n        /* \"#utility.yul\":3740:3762   */\n      add\n        /* \"#utility.yul\":3709:3772   */\n      tag_65\n      jump\t// in\n    tag_135:\n        /* \"#utility.yul\":3699:3772   */\n      swap3\n      pop\n        /* \"#utility.yul\":3495:3782   */\n      pop\n        /* \"#utility.yul\":3821:3823   */\n      0x20\n        /* \"#utility.yul\":3847:3900   */\n      tag_136\n        /* \"#utility.yul\":3892:3899   */\n      dup6\n        /* \"#utility.yul\":3883:3889   */\n      dup3\n        /* \"#utility.yul\":3872:3881   */\n      dup7\n        /* \"#utility.yul\":3868:3890   */\n      add\n        /* \"#utility.yul\":3847:3900   */\n      tag_67\n      jump\t// in\n    tag_136:\n        /* \"#utility.yul\":3837:3900   */\n      swap2\n      pop\n        /* \"#utility.yul\":3792:3910   */\n      pop\n        /* \"#utility.yul\":3263:3917   */\n      swap3\n      pop\n      swap3\n      swap1\n      pop\n      jump\t// out\n        /* \"#utility.yul\":3923:4252   */\n    tag_25:\n        /* \"#utility.yul\":3982:3988   */\n      0x00\n        /* \"#utility.yul\":4031:4033   */\n      0x20\n        /* \"#utility.yul\":4019:4028   */\n      dup3\n        /* \"#utility.yul\":4010:4017   */\n      dup5\n        /* \"#utility.yul\":4006:4029   */\n      sub\n        /* \"#utility.yul\":4002:4034   */\n      slt\n        /* \"#utility.yul\":3999:4118   */\n      iszero\n      tag_138\n      jumpi\n        /* \"#utility.yul\":4037:4116   */\n      tag_139\n      tag_54\n      jump\t// in\n    tag_139:\n        /* \"#utility.yul\":3999:4118   */\n    tag_138:\n        /* \"#utility.yul\":4157:4158   */\n      0x00\n        /* \"#utility.yul\":4182:4235   */\n      tag_140\n        /* \"#utility.yul\":4227:4234   */\n      dup5\n        /* \"#utility.yul\":4218:4224   */\n      dup3\n        /* \"#utility.yul\":4207:4216   */\n      dup6\n        /* \"#utility.yul\":4203:4225   */\n      add\n        /* \"#utility.yul\":4182:4235   */\n      tag_67\n      jump\t// in\n    tag_140:\n        /* \"#utility.yul\":4172:4235   */\n      swap2\n      pop\n        /* \"#utility.yul\":4128:4245   */\n      pop\n        /* \"#utility.yul\":3923:4252   */\n      swap3\n      swap2\n      pop\n      pop\n      jump\t// out\n        /* \"#utility.yul\":4258:4357   */\n    tag_68:\n        /* \"#utility.yul\":4310:4316   */\n      0x00\n        /* \"#utility.yul\":4344:4349   */\n      dup2\n        /* \"#utility.yul\":4338:4350   */\n      mload\n        /* \"#utility.yul\":4328:4350   */\n      swap1\n      pop\n        /* \"#utility.yul\":4258:4357   */\n      swap2\n      swap1\n      pop\n      jump\t// out\n        /* \"#utility.yul\":4363:4532   */\n    tag_69:\n        /* \"#utility.yul\":4447:4458   */\n      0x00\n        /* \"#utility.yul\":4481:4487   */\n      dup3\n        /* \"#utility.yul\":4476:4479   */\n      dup3\n        /* \"#utility.yul\":4469:4488   */\n      mstore\n        /* \"#utility.yul\":4521:4525   */\n      0x20\n        /* \"#utility.yul\":4516:4519   */\n      dup3\n        /* \"#utility.yul\":4512:4526   */\n      add\n        /* \"#utility.yul\":4497:4526   */\n      swap1\n      pop\n        /* \"#utility.yul\":4363:4532   */\n      swap3\n      swap2\n      pop\n      pop\n      jump\t// out\n        /* \"#utility.yul\":4538:4677   */\n    tag_70:\n        /* \"#utility.yul\":4627:4633   */\n      dup3\n        /* \"#utility.yul\":4622:4625   */\n      dup2\n        /* \"#utility.yul\":4617:4620   */\n      dup4\n        /* \"#utility.yul\":4611:4634   */\n      mcopy\n        /* \"#utility.yul\":4668:4669   */\n      0x00\n        /* \"#utility.yul\":4659:4665   */\n      dup4\n        /* \"#utility.yul\":4654:4657   */\n      dup4\n        /* \"#utility.yul\":4650:4666   */\n      add\n        /* \"#utility.yul\":4643:4670   */\n      mstore\n        /* \"#utility.yul\":4538:4677   */\n      pop\n      pop\n      pop\n      jump\t// out\n        /* \"#utility.yul\":4683:5060   */\n    tag_71:\n        /* \"#utility.yul\":4771:4774   */\n      0x00\n        /* \"#utility.yul\":4799:4838   */\n      tag_145\n        /* \"#utility.yul\":4832:4837   */\n      dup3\n        /* \"#utility.yul\":4799:4838   */\n      tag_68\n      jump\t// in\n    tag_145:\n        /* \"#utility.yul\":4854:4925   */\n      tag_146\n        /* \"#utility.yul\":4918:4924   */\n      dup2\n        /* \"#utility.yul\":4913:4916   */\n      dup6\n        /* \"#utility.yul\":4854:4925   */\n      tag_69\n      jump\t// in\n    tag_146:\n        /* \"#utility.yul\":4847:4925   */\n      swap4\n      pop\n        /* \"#utility.yul\":4934:4999   */\n      tag_147\n        /* \"#utility.yul\":4992:4998   */\n      dup2\n        /* \"#utility.yul\":4987:4990   */\n      dup6\n        /* \"#utility.yul\":4980:4984   */\n      0x20\n        /* \"#utility.yul\":4973:4978   */\n      dup7\n        /* \"#utility.yul\":4969:4985   */\n      add\n        /* \"#utility.yul\":4934:4999   */\n      tag_70\n      jump\t// in\n    tag_147:\n        /* \"#utility.yul\":5024:5053   */\n      tag_148\n        /* \"#utility.yul\":5046:5052   */\n      dup2\n        /* \"#utility.yul\":5024:5053   */\n      tag_58\n      jump\t// in\n    tag_148:\n        /* \"#utility.yul\":5019:5022   */\n      dup5\n        /* \"#utility.yul\":5015:5054   */\n      add\n        /* \"#utility.yul\":5008:5054   */\n      swap2\n      pop\n        /* \"#utility.yul\":4775:5060   */\n      pop\n        /* \"#utility.yul\":4683:5060   */\n      swap3\n      swap2\n      pop\n      pop\n      jump\t// out\n        /* \"#utility.yul\":5066:5489   */\n    tag_28:\n        /* \"#utility.yul\":5207:5211   */\n      0x00\n        /* \"#utility.yul\":5245:5247   */\n      0x40\n        /* \"#utility.yul\":5234:5243   */\n      dup3\n        /* \"#utility.yul\":5230:5248   */\n      add\n        /* \"#utility.yul\":5222:5248   */\n      swap1\n      pop\n        /* \"#utility.yul\":5294:5303   */\n      dup2\n        /* \"#utility.yul\":5288:5292   */\n      dup2\n        /* \"#utility.yul\":5284:5304   */\n      sub\n        /* \"#utility.yul\":5280:5281   */\n      0x00\n        /* \"#utility.yul\":5269:5278   */\n      dup4\n        /* \"#utility.yul\":5265:5282   */\n      add\n        /* \"#utility.yul\":5258:5305   */\n      mstore\n        /* \"#utility.yul\":5322:5400   */\n      tag_150\n        /* \"#utility.yul\":5395:5399   */\n      dup2\n        /* \"#utility.yul\":5386:5392   */\n      dup6\n        /* \"#utility.yul\":5322:5400   */\n      tag_71\n      jump\t// in\n    tag_150:\n        /* \"#utility.yul\":5314:5400   */\n      swap1\n      pop\n        /* \"#utility.yul\":5410:5482   */\n      tag_151\n        /* \"#utility.yul\":5478:5480   */\n      0x20\n        /* \"#utility.yul\":5467:5476   */\n      dup4\n        /* \"#utility.yul\":5463:5481   */\n      add\n        /* \"#utility.yul\":5454:5460   */\n      dup5\n        /* \"#utility.yul\":5410:5482   */\n      tag_52\n      jump\t// in\n    tag_151:\n        /* \"#utility.yul\":5066:5489   */\n      swap4\n      swap3\n      pop\n      pop\n      pop\n      jump\t// out\n        /* \"#utility.yul\":5495:5675   */\n    tag_72:\n        /* \"#utility.yul\":5543:5620   */\n      0x4e487b7100000000000000000000000000000000000000000000000000000000\n        /* \"#utility.yul\":5540:5541   */\n      0x00\n        /* \"#utility.yul\":5533:5621   */\n      mstore\n        /* \"#utility.yul\":5640:5644   */\n      0x22\n        /* \"#utility.yul\":5637:5638   */\n      0x04\n        /* \"#utility.yul\":5630:5645   */\n      mstore\n        /* \"#utility.yul\":5664:5668   */\n      0x24\n        /* \"#utility.yul\":5661:5662   */\n      0x00\n        /* \"#utility.yul\":5654:5669   */\n      revert\n        /* \"#utility.yul\":5681:6001   */\n    tag_46:\n        /* \"#utility.yul\":5725:5731   */\n      0x00\n        /* \"#utility.yul\":5762:5763   */\n      0x02\n        /* \"#utility.yul\":5756:5760   */\n      dup3\n        /* \"#utility.yul\":5752:5764   */\n      div\n        /* \"#utility.yul\":5742:5764   */\n      swap1\n      pop\n        /* \"#utility.yul\":5809:5810   */\n      0x01\n        /* \"#utility.yul\":5803:5807   */\n      dup3\n        /* \"#utility.yul\":5799:5811   */\n      and\n        /* \"#utility.yul\":5830:5848   */\n      dup1\n        /* \"#utility.yul\":5820:5901   */\n      tag_154\n      jumpi\n        /* \"#utility.yul\":5886:5890   */\n      0x7f\n        /* \"#utility.yul\":5878:5884   */\n      dup3\n        /* \"#utility.yul\":5874:5891   */\n      and\n        /* \"#utility.yul\":5864:5891   */\n      swap2\n      pop\n        /* \"#utility.yul\":5820:5901   */\n    tag_154:\n        /* \"#utility.yul\":5948:5950   */\n      0x20\n        /* \"#utility.yul\":5940:5946   */\n      dup3\n        /* \"#utility.yul\":5937:5951   */\n      lt\n        /* \"#utility.yul\":5917:5935   */\n      dup2\n        /* \"#utility.yul\":5914:5952   */\n      sub\n        /* \"#utility.yul\":5911:5995   */\n      tag_155\n      jumpi\n        /* \"#utility.yul\":5967:5985   */\n      tag_156\n      tag_72\n      jump\t// in\n    tag_156:\n        /* \"#utility.yul\":5911:5995   */\n    tag_155:\n        /* \"#utility.yul\":5732:6001   */\n      pop\n        /* \"#utility.yul\":5681:6001   */\n      swap2\n      swap1\n      pop\n      jump\t// out\n        /* \"#utility.yul\":6007:6148   */\n    tag_73:\n        /* \"#utility.yul\":6056:6060   */\n      0x00\n        /* \"#utility.yul\":6079:6082   */\n      dup2\n        /* \"#utility.yul\":6071:6082   */\n      swap1\n      pop\n        /* \"#utility.yul\":6102:6105   */\n      dup2\n        /* \"#utility.yul\":6099:6100   */\n      0x00\n        /* \"#utility.yul\":6092:6106   */\n      mstore\n        /* \"#utility.yul\":6136:6140   */\n      0x20\n        /* \"#utility.yul\":6133:6134   */\n      0x00\n        /* \"#utility.yul\":6123:6141   */\n      keccak256\n        /* \"#utility.yul\":6115:6141   */\n      swap1\n      pop\n        /* \"#utility.yul\":6007:6148   */\n      swap2\n      swap1\n      pop\n      jump\t// out\n        /* \"#utility.yul\":6154:6247   */\n    tag_74:\n        /* \"#utility.yul\":6191:6197   */\n      0x00\n        /* \"#utility.yul\":6238:6240   */\n      0x20\n        /* \"#utility.yul\":6233:6235   */\n      0x1f\n        /* \"#utility.yul\":6226:6231   */\n      dup4\n        /* \"#utility.yul\":6222:6236   */\n      add\n        /* \"#utility.yul\":6218:6241   */\n      div\n        /* \"#utility.yul\":6208:6241   */\n      swap1\n      pop\n        /* \"#utility.yul\":6154:6247   */\n      swap2\n      swap1\n      pop\n      jump\t// out\n        /* \"#utility.yul\":6253:6360   */\n    tag_75:\n        /* \"#utility.yul\":6297:6305   */\n      0x00\n        /* \"#utility.yul\":6347:6352   */\n      dup3\n        /* \"#utility.yul\":6341:6345   */\n      dup3\n        /* \"#utility.yul\":6337:6353   */\n      shl\n        /* \"#utility.yul\":6316:6353   */\n      swap1\n      pop\n        /* \"#utility.yul\":6253:6360   */\n      swap3\n      swap2\n      pop\n      pop\n      jump\t// out\n        /* \"#utility.yul\":6366:6759   */\n    tag_76:\n        /* \"#utility.yul\":6435:6441   */\n      0x00\n        /* \"#utility.yul\":6485:6486   */\n      0x08\n        /* \"#utility.yul\":6473:6483   */\n      dup4\n        /* \"#utility.yul\":6469:6487   */\n      mul\n        /* \"#utility.yul\":6508:6605   */\n      tag_161\n        /* \"#utility.yul\":6538:6604   */\n      0xffffffffffffffffffffffffffffffffffffffffffffffffffffffffffffffff\n        /* \"#utility.yul\":6527:6536   */\n      dup3\n        /* \"#utility.yul\":6508:6605   */\n      tag_75\n      jump\t// in\n    tag_161:\n        /* \"#utility.yul\":6626:6665   */\n      tag_162\n        /* \"#utility.yul\":6656:6664   */\n      dup7\n        /* \"#utility.yul\":6645:6654   */\n      dup4\n        /* \"#utility.yul\":6626:6665   */\n      tag_75\n      jump\t// in\n    tag_162:\n        /* \"#utility.yul\":6614:6665   */\n      swap6\n      pop\n        /* \"#utility.yul\":6698:6702   */\n      dup1\n        /* \"#utility.yul\":6694:6703   */\n      not\n        /* \"#utility.yul\":6687:6692   */\n      dup5\n        /* \"#utility.yul\":6683:6704   */\n      and\n        /* \"#utility.yul\":6674:6704   */\n      swap4\n      pop\n        /* \"#utility.yul\":6747:6751   */\n      dup1\n        /* \"#utility.yul\":6737:6745   */\n      dup7\n        /* \"#utility.yul\":6733:6752   */\n      and\n        /* \"#utility.yul\":6726:6731   */\n      dup5\n        /* \"#utility.yul\":6723:6753   */\n      or\n        /* \"#utility.yul\":6713:6753   */\n      swap3\n      pop\n        /* \"#utility.yul\":6442:6759   */\n      pop\n      pop\n        /* \"#utility.yul\":6366:6759   */\n      swap4\n      swap3\n      pop\n      pop\n      pop\n      jump\t// out\n        /* \"#utility.yul\":6765:6825   */\n    tag_77:\n        /* \"#utility.yul\":6793:6796   */\n      0x00\n        /* \"#utility.yul\":6814:6819   */\n      dup2\n        /* \"#utility.yul\":6807:6819   */\n      swap1\n      pop\n        /* \"#utility.yul\":6765:6825   */\n      swap2\n      swap1\n      pop\n      jump\t// out\n        /* \"#utility.yul\":6831:6973   */\n    tag_78:\n        /* \"#utility.yul\":6881:6890   */\n      0x00\n        /* \"#utility.yul\":6914:6967   */\n      tag_165\n        /* \"#utility.yul\":6932:6966   */\n      tag_166\n        /* \"#utility.yul\":6941:6965   */\n      tag_167\n        /* \"#utility.yul\":6959:6964   */\n      dup5\n        /* \"#utility.yul\":6941:6965   */\n      tag_51\n      jump\t// in\n    tag_167:\n        /* \"#utility.yul\":6932:6966   */\n      tag_77\n      jump\t// in\n    tag_166:\n        /* \"#utility.yul\":6914:6967   */\n      tag_51\n      jump\t// in\n    tag_165:\n        /* \"#utility.yul\":6901:6967   */\n      swap1\n      pop\n        /* \"#utility.yul\":6831:6973   */\n      swap2\n      swap1\n      pop\n      jump\t// out\n        /* \"#utility.yul\":6979:7054   */\n    tag_79:\n        /* \"#utility.yul\":7022:7025   */\n      0x00\n        /* \"#utility.yul\":7043:7048   */\n      dup2\n        /* \"#utility.yul\":7036:7048   */\n      swap1\n      pop\n        /* \"#utility.yul\":6979:7054   */\n      swap2\n      swap1\n      pop\n      jump\t// out\n        /* \"#utility.yul\":7060:7329   */\n    tag_80:\n        /* \"#utility.yul\":7170:7209   */\n      tag_170\n        /* \"#utility.yul\":7201:7208   */\n      dup4\n        /* \"#utility.yul\":7170:7209   */\n      tag_78\n      jump\t// in\n    tag_170:\n        /* \"#utility.yul\":7231:7322   */\n      tag_171\n        /* \"#utility.yul\":7280:7321   */\n      tag_172\n        /* \"#utility.yul\":7304:7320   */\n      dup3\n        /* \"#utility.yul\":7280:7321   */\n      tag_79\n      jump\t// in\n    tag_172:\n        /* \"#utility.yul\":7272:7278   */\n      dup5\n        /* \"#utility.yul\":7265:7269   */\n      dup5\n        /* \"#utility.yul\":7259:7270   */\n      sload\n        /* \"#utility.yul\":7231:7322   */\n      tag_76\n      jump\t// in\n    tag_171:\n        /* \"#utility.yul\":7225:7229   */\n      dup3\n        /* \"#utility.yul\":7218:7323   */\n      sstore\n        /* \"#utility.yul\":7136:7329   */\n      pop\n        /* \"#utility.yul\":7060:7329   */\n      pop\n      pop\n      pop\n      jump\t// out\n        /* \"#utility.yul\":7335:7408   */\n    tag_81:\n        /* \"#utility.yul\":7380:7383   */\n      0x00\n        /* \"#utility.yul\":7335:7408   */\n      swap1\n      jump\t// out\n        /* \"#utility.yul\":7414:7603   */\n    tag_82:\n        /* \"#utility.yul\":7491:7523   */\n      tag_175\n      tag_81\n      jump\t// in\n    tag_175:\n        /* \"#utility.yul\":7532:7597   */\n      tag_176\n        /* \"#utility.yul\":7590:7596   */\n      dup2\n        /* \"#utility.yul\":7582:7588   */\n      dup5\n        /* \"#utility.yul\":7576:7580   */\n      dup5\n        /* \"#utility.yul\":7532:7597   */\n      tag_80\n      jump\t// in\n    tag_176:\n        /* \"#utility.yul\":7467:7603   */\n      pop\n        /* \"#utility.yul\":7414:7603   */\n      pop\n      pop\n      jump\t// out\n        /* \"#utility.yul\":7609:7795   */\n    tag_83:\n        /* \"#utility.yul\":7669:7789   */\n    tag_178:\n        /* \"#utility.yul\":7686:7689   */\n      dup2\n        /* \"#utility.yul\":7679:7684   */\n      dup2\n        /* \"#utility.yul\":7676:7690   */\n      lt\n        /* \"#utility.yul\":7669:7789   */\n      iszero\n      tag_180\n      jumpi\n        /* \"#utility.yul\":7740:7779   */\n      tag_181\n        /* \"#utility.yul\":7777:7778   */\n      0x00\n        /* \"#utility.yul\":7770:7775   */\n      dup3\n        /* \"#utility.yul\":7740:7779   */\n      tag_82\n      jump\t// in\n    tag_181:\n        /* \"#utility.yul\":7713:7714   */\n      0x01\n        /* \"#utility.yul\":7706:7711   */\n      dup2\n        /* \"#utility.yul\":7702:7715   */\n      add\n        /* \"#utility.yul\":7693:7715   */\n      swap1\n      pop\n        /* \"#utility.yul\":7669:7789   */\n      jump(tag_178)\n    tag_180:\n        /* \"#utility.yul\":7609:7795   */\n      pop\n      pop\n      jump\t// out\n        /* \"#utility.yul\":7801:8344   */\n    tag_84:\n        /* \"#utility.yul\":7902:7904   */\n      0x1f\n        /* \"#utility.yul\":7897:7900   */\n      dup3\n        /* \"#utility.yul\":7894:7905   */\n      gt\n        /* \"#utility.yul\":7891:8337   */\n      iszero\n      tag_183\n      jumpi\n        /* \"#utility.yul\":7936:7974   */\n      tag_184\n        /* \"#utility.yul\":7968:7973   */\n      dup2\n        /* \"#utility.yul\":7936:7974   */\n      tag_73\n      jump\t// in\n    tag_184:\n        /* \"#utility.yul\":8020:8049   */\n      tag_185\n        /* \"#utility.yul\":8038:8048   */\n      dup5\n        /* \"#utility.yul\":8020:8049   */\n      tag_74\n      jump\t// in\n    tag_185:\n        /* \"#utility.yul\":8010:8018   */\n      dup2\n        /* \"#utility.yul\":8006:8050   */\n      add\n        /* \"#utility.yul\":8203:8205   */\n      0x20\n        /* \"#utility.yul\":8191:8201   */\n      dup6\n        /* \"#utility.yul\":8188:8206   */\n      lt\n        /* \"#utility.yul\":8185:8234   */\n      iszero\n      tag_186\n      jumpi\n        /* \"#utility.yul\":8224:8232   */\n      dup2\n        /* \"#utility.yul\":8209:8232   */\n      swap1\n      pop\n        /* \"#utility.yul\":8185:8234   */\n    tag_186:\n        /* \"#utility.yul\":8247:8327   */\n      tag_187\n        /* \"#utility.yul\":8303:8325   */\n      tag_188\n        /* \"#utility.yul\":8321:8324   */\n      dup6\n        /* \"#utility.yul\":8303:8325   */\n      tag_74\n      jump\t// in\n    tag_188:\n        /* \"#utility.yul\":8293:8301   */\n      dup4\n        /* \"#utility.yul\":8289:8326   */\n      add\n        /* \"#utility.yul\":8276:8287   */\n      dup3\n        /* \"#utility.yul\":8247:8327   */\n      tag_83\n      jump\t// in\n    tag_187:\n        /* \"#utility.yul\":7906:8337   */\n      pop\n      pop\n        /* \"#utility.yul\":7891:8337   */\n    tag_183:\n        /* \"#utility.yul\":7801:8344   */\n      pop\n      pop\n      pop\n      jump\t// out\n        /* \"#utility.yul\":8350:8467   */\n    tag_85:\n        /* \"#utility.yul\":8404:8412   */\n      0x00\n        /* \"#utility.yul\":8454:8459   */\n      dup3\n        /* \"#utility.yul\":8448:8452   */\n      dup3\n        /* \"#utility.yul\":8444:8460   */\n      shr\n        /* \"#utility.yul\":8423:8460   */\n      swap1\n      pop\n        /* \"#utility.yul\":8350:8467   */\n      swap3\n      swap2\n      pop\n      pop\n      jump\t// out\n        /* \"#utility.yul\":8473:8642   */\n    tag_86:\n        /* \"#utility.yul\":8517:8523   */\n      0x00\n        /* \"#utility.yul\":8550:8601   */\n      tag_191\n        /* \"#utility.yul\":8598:8599   */\n      0x00\n        /* \"#utility.yul\":8594:8600   */\n      not\n        /* \"#utility.yul\":8586:8591   */\n      dup5\n        /* \"#utility.yul\":8583:8584   */\n      0x08\n        /* \"#utility.yul\":8579:8592   */\n      mul\n        /* \"#utility.yul\":8550:8601   */\n      tag_85\n      jump\t// in\n    tag_191:\n        /* \"#utility.yul\":8546:8602   */\n      not\n        /* \"#utility.yul\":8631:8635   */\n      dup1\n        /* \"#utility.yul\":8625:8629   */\n      dup4\n        /* \"#utility.yul\":8621:8636   */\n      and\n        /* \"#utility.yul\":8611:8636   */\n      swap2\n      pop\n        /* \"#utility.yul\":8524:8642   */\n      pop\n        /* \"#utility.yul\":8473:8642   */\n      swap3\n      swap2\n      pop\n      pop\n      jump\t// out\n        /* \"#utility.yul\":8647:8942   */\n    tag_87:\n        /* \"#utility.yul\":8723:8727   */\n      0x00\n        /* \"#utility.yul\":8869:8898   */\n      tag_193\n        /* \"#utility.yul\":8894:8897   */\n      dup4\n        /* \"#utility.yul\":8888:8892   */\n      dup4\n        /* \"#utility.yul\":8869:8898   */\n      tag_86\n      jump\t// in\n    tag_193:\n        /* \"#utility.yul\":8861:8898   */\n      swap2\n      pop\n        /* \"#utility.yul\":8931:8934   */\n      dup3\n        /* \"#utility.yul\":8928:8929   */\n      0x02\n        /* \"#utility.yul\":8924:8935   */\n      mul\n        /* \"#utility.yul\":8918:8922   */\n      dup3\n        /* \"#utility.yul\":8915:8936   */\n      or\n        /* \"#utility.yul\":8907:8936   */\n      swap1\n      pop\n        /* \"#utility.yul\":8647:8942   */\n      swap3\n      swap2\n      pop\n      pop\n      jump\t// out\n        /* \"#utility.yul\":8947:10342   */\n    tag_32:\n        /* \"#utility.yul\":9064:9101   */\n      tag_195\n        /* \"#utility.yul\":9097:9100   */\n      dup3\n        /* \"#utility.yul\":9064:9101   */\n      tag_68\n      jump\t// in\n    tag_195:\n        /* \"#utility.yul\":9166:9184   */\n      0xffffffffffffffff\n        /* \"#utility.yul\":9158:9164   */\n      dup2\n        /* \"#utility.yul\":9155:9185   */\n      gt\n        /* \"#utility.yul\":9152:9208   */\n      iszero\n      tag_196\n      jumpi\n        /* \"#utility.yul\":9188:9206   */\n      tag_197\n      tag_59\n      jump\t// in\n    tag_197:\n        /* \"#utility.yul\":9152:9208   */\n    tag_196:\n        /* \"#utility.yul\":9232:9270   */\n      tag_198\n        /* \"#utility.yul\":9264:9268   */\n      dup3\n        /* \"#utility.yul\":9258:9269   */\n      sload\n        /* \"#utility.yul\":9232:9270   */\n      tag_46\n      jump\t// in\n    tag_198:\n        /* \"#utility.yul\":9317:9384   */\n      tag_199\n        /* \"#utility.yul\":9377:9383   */\n      dup3\n        /* \"#utility.yul\":9369:9375   */\n      dup3\n        /* \"#utility.yul\":9363:9367   */\n      dup6\n        /* \"#utility.yul\":9317:9384   */\n      tag_84\n      jump\t// in\n    tag_199:\n        /* \"#utility.yul\":9411:9412   */\n      0x00\n        /* \"#utility.yul\":9435:9439   */\n      0x20\n        /* \"#utility.yul\":9422:9439   */\n      swap1\n      pop\n        /* \"#utility.yul\":9467:9469   */\n      0x1f\n        /* \"#utility.yul\":9459:9465   */\n      dup4\n        /* \"#utility.yul\":9456:9470   */\n      gt\n        /* \"#utility.yul\":9484:9485   */\n      0x01\n        /* \"#utility.yul\":9479:10097   */\n      dup2\n      eq\n      tag_201\n      jumpi\n        /* \"#utility.yul\":10141:10142   */\n      0x00\n        /* \"#utility.yul\":10158:10164   */\n      dup5\n        /* \"#utility.yul\":10155:10232   */\n      iszero\n      tag_202\n      jumpi\n        /* \"#utility.yul\":10207:10216   */\n      dup3\n        /* \"#utility.yul\":10202:10205   */\n      dup8\n        /* \"#utility.yul\":10198:10217   */\n      add\n        /* \"#utility.yul\":10192:10218   */\n      mload\n        /* \"#utility.yul\":10183:10218   */\n      swap1\n      pop\n        /* \"#utility.yul\":10155:10232   */\n    tag_202:\n        /* \"#utility.yul\":10258:10325   */\n      tag_203\n        /* \"#utility.yul\":10318:10324   */\n      dup6\n        /* \"#utility.yul\":10311:10316   */\n      dup3\n        /* \"#utility.yul\":10258:10325   */\n      tag_87\n      jump\t// in\n    tag_203:\n        /* \"#utility.yul\":10252:10256   */\n      dup7\n        /* \"#utility.yul\":10245:10326   */\n      sstore\n        /* \"#utility.yul\":10114:10336   */\n      pop\n        /* \"#utility.yul\":9449:10336   */\n      jump(tag_200)\n        /* \"#utility.yul\":9479:10097   */\n    tag_201:\n        /* \"#utility.yul\":9531:9535   */\n      0x1f\n        /* \"#utility.yul\":9527:9536   */\n      not\n        /* \"#utility.yul\":9519:9525   */\n      dup5\n        /* \"#utility.yul\":9515:9537   */\n      and\n        /* \"#utility.yul\":9565:9602   */\n      tag_204\n        /* \"#utility.yul\":9597:9601   */\n      dup7\n        /* \"#utility.yul\":9565:9602   */\n      tag_73\n      jump\t// in\n    tag_204:\n        /* \"#utility.yul\":9624:9625   */\n      0x00\n        /* \"#utility.yul\":9638:9846   */\n    tag_205:\n        /* \"#utility.yul\":9652:9659   */\n      dup3\n        /* \"#utility.yul\":9649:9650   */\n      dup2\n        /* \"#utility.yul\":9646:9660   */\n      lt\n        /* \"#utility.yul\":9638:9846   */\n      iszero\n      tag_207\n      jumpi\n        /* \"#utility.yul\":9731:9740   */\n      dup5\n        /* \"#utility.yul\":9726:9729   */\n      dup10\n        /* \"#utility.yul\":9722:9741   */\n      add\n        /* \"#utility.yul\":9716:9742   */\n      mload\n        /* \"#utility.yul\":9708:9714   */\n      dup3\n        /* \"#utility.yul\":9701:9743   */\n      sstore\n        /* \"#utility.yul\":9782:9783   */\n      0x01\n        /* \"#utility.yul\":9774:9780   */\n      dup3\n        /* \"#utility.yul\":9770:9784   */\n      add\n        /* \"#utility.yul\":9760:9784   */\n      swap2\n      pop\n        /* \"#utility.yul\":9829:9831   */\n      0x20\n        /* \"#utility.yul\":9818:9827   */\n      dup6\n        /* \"#utility.yul\":9814:9832   */\n      add\n        /* \"#utility.yul\":9801:9832   */\n      swap5\n      pop\n        /* \"#utility.yul\":9675:9679   */\n      0x20\n        /* \"#utility.yul\":9672:9673   */\n      dup2\n        /* \"#utility.yul\":9668:9680   */\n      add\n        /* \"#utility.yul\":9663:9680   */\n      swap1\n      pop\n        /* \"#utility.yul\":9638:9846   */\n      jump(tag_205)\n    tag_207:\n        /* \"#utility.yul\":9874:9880   */\n      dup7\n        /* \"#utility.yul\":9865:9872   */\n      dup4\n        /* \"#utility.yul\":9862:9881   */\n      lt\n        /* \"#utility.yul\":9859:10038   */\n      iszero\n      tag_208\n      jumpi\n        /* \"#utility.yul\":9932:9941   */\n      dup5\n        /* \"#utility.yul\":9927:9930   */\n      dup10\n        /* \"#utility.yul\":9923:9942   */\n      add\n        /* \"#utility.yul\":9917:9943   */\n      mload\n        /* \"#utility.yul\":9975:10023   */\n      tag_209\n        /* \"#utility.yul\":10017:10021   */\n      0x1f\n        /* \"#utility.yul\":10009:10015   */\n      dup10\n        /* \"#utility.yul\":10005:10022   */\n      and\n        /* \"#utility.yul\":9994:10003   */\n      dup3\n        /* \"#utility.yul\":9975:10023   */\n      tag_86\n      jump\t// in\n    tag_209:\n        /* \"#utility.yul\":9967:9973   */\n      dup4\n        /* \"#utility.yul\":9960:10024   */\n      sstore\n        /* \"#utility.yul\":9882:10038   */\n      pop\n        /* \"#utility.yul\":9859:10038   */\n    tag_208:\n        /* \"#utility.yul\":10084:10085   */\n      0x01\n        /* \"#utility.yul\":10080:10081   */\n      0x02\n        /* \"#utility.yul\":10072:10078   */\n      dup9\n        /* \"#utility.yul\":10068:10082   */\n      mul\n        /* \"#utility.yul\":10064:10086   */\n      add\n        /* \"#utility.yul\":10058:10062   */\n      dup9\n        /* \"#utility.yul\":10051:10087   */\n      sstore\n        /* \"#utility.yul\":9486:10097   */\n      pop\n      pop\n      pop\n        /* \"#utility.yul\":9449:10336   */\n    tag_200:\n      pop\n        /* \"#utility.yul\":9039:10342   */\n      pop\n      pop\n      pop\n        /* \"#utility.yul\":8947:10342   */\n      pop\n      pop\n      jump\t// out\n        /* \"#utility.yul\":10348:10515   */\n    tag_88:\n        /* \"#utility.yul\":10488:10507   */\n      0x53747564656e74206e6f7420666f756e64000000000000000000000000000000\n        /* \"#utility.yul\":10484:10485   */\n      0x00\n        /* \"#utility.yul\":10476:10482   */\n      dup3\n        /* \"#utility.yul\":10472:10486   */\n      add\n        /* \"#utility.yul\":10465:10508   */\n      mstore\n        /* \"#utility.yul\":10348:10515   */\n      pop\n      jump\t// out\n        /* \"#utility.yul\":10521:10887   */\n    tag_89:\n        /* \"#utility.yul\":10663:10666   */\n      0x00\n        /* \"#utility.yul\":10684:10751   */\n      tag_212\n        /* \"#utility.yul\":10748:10750   */\n      0x11\n        /* \"#utility.yul\":10743:10746   */\n      dup4\n        /* \"#utility.yul\":10684:10751   */\n      tag_69\n      jump\t// in\n    tag_212:\n        /* \"#utility.yul\":10677:10751   */\n      swap2\n      pop\n        /* \"#utility.yul\":10760:10853   */\n      tag_213\n        /* \"#utility.yul\":10849:10852   */\n      dup3\n        /* \"#utility.yul\":10760:10853   */\n      tag_88\n      jump\t// in\n    tag_213:\n        /* \"#utility.yul\":10878:10880   */\n      0x20\n        /* \"#utility.yul\":10873:10876   */\n      dup3\n        /* \"#utility.yul\":10869:10881   */\n      add\n        /* \"#utility.yul\":10862:10881   */\n      swap1\n      pop\n        /* \"#utility.yul\":10521:10887   */\n      swap2\n      swap1\n      pop\n      jump\t// out\n        /* \"#utility.yul\":10893:11312   */\n    tag_37:\n        /* \"#utility.yul\":11059:11063   */\n      0x00\n        /* \"#utility.yul\":11097:11099   */\n      0x20\n        /* \"#utility.yul\":11086:11095   */\n      dup3\n        /* \"#utility.yul\":11082:11100   */\n      add\n        /* \"#utility.yul\":11074:11100   */\n      swap1\n      pop\n        /* \"#utility.yul\":11146:11155   */\n      dup2\n        /* \"#utility.yul\":11140:11144   */\n      dup2\n        /* \"#utility.yul\":11136:11156   */\n      sub\n        /* \"#utility.yul\":11132:11133   */\n      0x00\n        /* \"#utility.yul\":11121:11130   */\n      dup4\n        /* \"#utility.yul\":11117:11134   */\n      add\n        /* \"#utility.yul\":11110:11157   */\n      mstore\n        /* \"#utility.yul\":11174:11305   */\n      tag_215\n        /* \"#utility.yul\":11300:11304   */\n      dup2\n        /* \"#utility.yul\":11174:11305   */\n      tag_89\n      jump\t// in\n    tag_215:\n        /* \"#utility.yul\":11166:11305   */\n      swap1\n      pop\n        /* \"#utility.yul\":10893:11312   */\n      swap2\n      swap1\n      pop\n      jump\t// out\n        /* \"#utility.yul\":11318:11498   */\n    tag_40:\n        /* \"#utility.yul\":11366:11443   */\n      0x4e487b7100000000000000000000000000000000000000000000000000000000\n        /* \"#utility.yul\":11363:11364   */\n      0x00\n        /* \"#utility.yul\":11356:11444   */\n      mstore\n        /* \"#utility.yul\":11463:11467   */\n      0x32\n        /* \"#utility.yul\":11460:11461   */\n      0x04\n        /* \"#utility.yul\":11453:11468   */\n      mstore\n        /* \"#utility.yul\":11487:11491   */\n      0x24\n        /* \"#utility.yul\":11484:11485   */\n      0x00\n        /* \"#utility.yul\":11477:11492   */\n      revert\n\n    auxdata: 0xa26469706673582212209aa0162b654d59ef7c5a44653a412d7c61aee2edfa2cad04794ca9ff6d4a2a2364736f6c634300081a0033\n}\n",
				"bytecode": {
					"linkReferences": {},
					"object": "6080604052348015600e575f80fd5b506109458061001c5f395ff3fe608060405260043610610037575f3560e01c80630e5eeef7146100dc57806341e0c40714610104578063642f91631461012e5761008c565b3661008c573373ffffffffffffffffffffffffffffffffffffffff167fa419615bc8fda4c87663805ee2a3597a6d71c1d476911d9892f340d965bc7bf134604051610082919061030e565b60405180910390a2005b3373ffffffffffffffffffffffffffffffffffffffff167fa419615bc8fda4c87663805ee2a3597a6d71c1d476911d9892f340d965bc7bf1346040516100d2919061030e565b60405180910390a2005b3480156100e7575f80fd5b5061010260048036038101906100fd919061049e565b61016b565b005b34801561010f575f80fd5b506101186101cb565b604051610125919061030e565b60405180910390f35b348015610139575f80fd5b50610154600480360381019061014f91906104f8565b6101d6565b604051610162929190610583565b60405180910390f35b5f604051806040016040528084815260200183815250908060018154018082558091505060019003905f5260205f2090600202015f909190919091505f820151815f0190816101ba91906107ab565b506020820151816001015550505050565b5f8080549050905090565b60605f8080549050831061021f576040517f08c379a0000000000000000000000000000000000000000000000000000000008152600401610216906108c4565b60405180910390fd5b5f8381548110610232576102316108e2565b5b905f5260205f2090600202015f015f8481548110610253576102526108e2565b5b905f5260205f2090600202016001015481805461026f906105de565b80601f016020809104026020016040519081016040528092919081815260200182805461029b906105de565b80156102e65780601f106102bd576101008083540402835291602001916102e6565b820191905f5260205f20905b8154815290600101906020018083116102c957829003601f168201915b5050505050915091509150915091565b5f819050919050565b610308816102f6565b82525050565b5f6020820190506103215f8301846102ff565b92915050565b5f604051905090565b5f80fd5b5f80fd5b5f80fd5b5f80fd5b5f601f19601f8301169050919050565b7f4e487b71000000000000000000000000000000000000000000000000000000005f52604160045260245ffd5b61038682610340565b810181811067ffffffffffffffff821117156103a5576103a4610350565b5b80604052505050565b5f6103b7610327565b90506103c3828261037d565b919050565b5f67ffffffffffffffff8211156103e2576103e1610350565b5b6103eb82610340565b9050602081019050919050565b828183375f83830152505050565b5f610418610413846103c8565b6103ae565b9050828152602081018484840111156104345761043361033c565b5b61043f8482856103f8565b509392505050565b5f82601f83011261045b5761045a610338565b5b813561046b848260208601610406565b91505092915050565b61047d816102f6565b8114610487575f80fd5b50565b5f8135905061049881610474565b92915050565b5f80604083850312156104b4576104b3610330565b5b5f83013567ffffffffffffffff8111156104d1576104d0610334565b5b6104dd85828601610447565b92505060206104ee8582860161048a565b9150509250929050565b5f6020828403121561050d5761050c610330565b5b5f61051a8482850161048a565b91505092915050565b5f81519050919050565b5f82825260208201905092915050565b8281835e5f83830152505050565b5f61055582610523565b61055f818561052d565b935061056f81856020860161053d565b61057881610340565b840191505092915050565b5f6040820190508181035f83015261059b818561054b565b90506105aa60208301846102ff565b9392505050565b7f4e487b71000000000000000000000000000000000000000000000000000000005f52602260045260245ffd5b5f60028204905060018216806105f557607f821691505b602082108103610608576106076105b1565b5b50919050565b5f819050815f5260205f209050919050565b5f6020601f8301049050919050565b5f82821b905092915050565b5f6008830261066a7fffffffffffffffffffffffffffffffffffffffffffffffffffffffffffffffff8261062f565b610674868361062f565b95508019841693508086168417925050509392505050565b5f819050919050565b5f6106af6106aa6106a5846102f6565b61068c565b6102f6565b9050919050565b5f819050919050565b6106c883610695565b6106dc6106d4826106b6565b84845461063b565b825550505050565b5f90565b6106f06106e4565b6106fb8184846106bf565b505050565b5b8181101561071e576107135f826106e8565b600181019050610701565b5050565b601f821115610763576107348161060e565b61073d84610620565b8101602085101561074c578190505b61076061075885610620565b830182610700565b50505b505050565b5f82821c905092915050565b5f6107835f1984600802610768565b1980831691505092915050565b5f61079b8383610774565b9150826002028217905092915050565b6107b482610523565b67ffffffffffffffff8111156107cd576107cc610350565b5b6107d782546105de565b6107e2828285610722565b5f60209050601f831160018114610813575f8415610801578287015190505b61080b8582610790565b865550610872565b601f1984166108218661060e565b5f5b8281101561084857848901518255600182019150602085019450602081019050610823565b868310156108655784890151610861601f891682610774565b8355505b6001600288020188555050505b505050505050565b7f53747564656e74206e6f7420666f756e640000000000000000000000000000005f82015250565b5f6108ae60118361052d565b91506108b98261087a565b602082019050919050565b5f6020820190508181035f8301526108db816108a2565b9050919050565b7f4e487b71000000000000000000000000000000000000000000000000000000005f52603260045260245ffdfea26469706673582212209aa0162b654d59ef7c5a44653a412d7c61aee2edfa2cad04794ca9ff6d4a2a2364736f6c634300081a0033",
					"opcodes": "PUSH1 0x80 PUSH1 0x40 MSTORE CALLVALUE DUP1 ISZERO PUSH1 0xE JUMPI PUSH0 DUP1 REVERT JUMPDEST POP PUSH2 0x945 DUP1 PUSH2 0x1C PUSH0 CODECOPY PUSH0 RETURN INVALID PUSH1 0x80 PUSH1 0x40 MSTORE PUSH1 0x4 CALLDATASIZE LT PUSH2 0x37 JUMPI PUSH0 CALLDATALOAD PUSH1 0xE0 SHR DUP1 PUSH4 0xE5EEEF7 EQ PUSH2 0xDC JUMPI DUP1 PUSH4 0x41E0C407 EQ PUSH2 0x104 JUMPI DUP1 PUSH4 0x642F9163 EQ PUSH2 0x12E JUMPI PUSH2 0x8C JUMP JUMPDEST CALLDATASIZE PUSH2 0x8C JUMPI CALLER PUSH20 0xFFFFFFFFFFFFFFFFFFFFFFFFFFFFFFFFFFFFFFFF AND PUSH32 0xA419615BC8FDA4C87663805EE2A3597A6D71C1D476911D9892F340D965BC7BF1 CALLVALUE PUSH1 0x40 MLOAD PUSH2 0x82 SWAP2 SWAP1 PUSH2 0x30E JUMP JUMPDEST PUSH1 0x40 MLOAD DUP1 SWAP2 SUB SWAP1 LOG2 STOP JUMPDEST CALLER PUSH20 0xFFFFFFFFFFFFFFFFFFFFFFFFFFFFFFFFFFFFFFFF AND PUSH32 0xA419615BC8FDA4C87663805EE2A3597A6D71C1D476911D9892F340D965BC7BF1 CALLVALUE PUSH1 0x40 MLOAD PUSH2 0xD2 SWAP2 SWAP1 PUSH2 0x30E JUMP JUMPDEST PUSH1 0x40 MLOAD DUP1 SWAP2 SUB SWAP1 LOG2 STOP JUMPDEST CALLVALUE DUP1 ISZERO PUSH2 0xE7 JUMPI PUSH0 DUP1 REVERT JUMPDEST POP PUSH2 0x102 PUSH1 0x4 DUP1 CALLDATASIZE SUB DUP2 ADD SWAP1 PUSH2 0xFD SWAP2 SWAP1 PUSH2 0x49E JUMP JUMPDEST PUSH2 0x16B JUMP JUMPDEST STOP JUMPDEST CALLVALUE DUP1 ISZERO PUSH2 0x10F JUMPI PUSH0 DUP1 REVERT JUMPDEST POP PUSH2 0x118 PUSH2 0x1CB JUMP JUMPDEST PUSH1 0x40 MLOAD PUSH2 0x125 SWAP2 SWAP1 PUSH2 0x30E JUMP JUMPDEST PUSH1 0x40 MLOAD DUP1 SWAP2 SUB SWAP1 RETURN JUMPDEST CALLVALUE DUP1 ISZERO PUSH2 0x139 JUMPI PUSH0 DUP1 REVERT JUMPDEST POP PUSH2 0x154 PUSH1 0x4 DUP1 CALLDATASIZE SUB DUP2 ADD SWAP1 PUSH2 0x14F SWAP2 SWAP1 PUSH2 0x4F8 JUMP JUMPDEST PUSH2 0x1D6 JUMP JUMPDEST PUSH1 0x40 MLOAD PUSH2 0x162 SWAP3 SWAP2 SWAP1 PUSH2 0x583 JUMP JUMPDEST PUSH1 0x40 MLOAD DUP1 SWAP2 SUB SWAP1 RETURN JUMPDEST PUSH0 PUSH1 0x40 MLOAD DUP1 PUSH1 0x40 ADD PUSH1 0x40 MSTORE DUP1 DUP5 DUP2 MSTORE PUSH1 0x20 ADD DUP4 DUP2 MSTORE POP SWAP1 DUP1 PUSH1 0x1 DUP2 SLOAD ADD DUP1 DUP3 SSTORE DUP1 SWAP2 POP POP PUSH1 0x1 SWAP1 SUB SWAP1 PUSH0 MSTORE PUSH1 0x20 PUSH0 KECCAK256 SWAP1 PUSH1 0x2 MUL ADD PUSH0 SWAP1 SWAP2 SWAP1 SWAP2 SWAP1 SWAP2 POP PUSH0 DUP3 ADD MLOAD DUP2 PUSH0 ADD SWAP1 DUP2 PUSH2 0x1BA SWAP2 SWAP1 PUSH2 0x7AB JUMP JUMPDEST POP PUSH1 0x20 DUP3 ADD MLOAD DUP2 PUSH1 0x1 ADD SSTORE POP POP POP POP JUMP JUMPDEST PUSH0 DUP1 DUP1 SLOAD SWAP1 POP SWAP1 POP SWAP1 JUMP JUMPDEST PUSH1 0x60 PUSH0 DUP1 DUP1 SLOAD SWAP1 POP DUP4 LT PUSH2 0x21F JUMPI PUSH1 0x40 MLOAD PUSH32 0x8C379A000000000000000000000000000000000000000000000000000000000 DUP2 MSTORE PUSH1 0x4 ADD PUSH2 0x216 SWAP1 PUSH2 0x8C4 JUMP JUMPDEST PUSH1 0x40 MLOAD DUP1 SWAP2 SUB SWAP1 REVERT JUMPDEST PUSH0 DUP4 DUP2 SLOAD DUP2 LT PUSH2 0x232 JUMPI PUSH2 0x231 PUSH2 0x8E2 JUMP JUMPDEST JUMPDEST SWAP1 PUSH0 MSTORE PUSH1 0x20 PUSH0 KECCAK256 SWAP1 PUSH1 0x2 MUL ADD PUSH0 ADD PUSH0 DUP5 DUP2 SLOAD DUP2 LT PUSH2 0x253 JUMPI PUSH2 0x252 PUSH2 0x8E2 JUMP JUMPDEST JUMPDEST SWAP1 PUSH0 MSTORE PUSH1 0x20 PUSH0 KECCAK256 SWAP1 PUSH1 0x2 MUL ADD PUSH1 0x1 ADD SLOAD DUP2 DUP1 SLOAD PUSH2 0x26F SWAP1 PUSH2 0x5DE JUMP JUMPDEST DUP1 PUSH1 0x1F ADD PUSH1 0x20 DUP1 SWAP2 DIV MUL PUSH1 0x20 ADD PUSH1 0x40 MLOAD SWAP1 DUP2 ADD PUSH1 0x40 MSTORE DUP1 SWAP3 SWAP2 SWAP1 DUP2 DUP2 MSTORE PUSH1 0x20 ADD DUP3 DUP1 SLOAD PUSH2 0x29B SWAP1 PUSH2 0x5DE JUMP JUMPDEST DUP1 ISZERO PUSH2 0x2E6 JUMPI DUP1 PUSH1 0x1F LT PUSH2 0x2BD JUMPI PUSH2 0x100 DUP1 DUP4 SLOAD DIV MUL DUP4 MSTORE SWAP2 PUSH1 0x20 ADD SWAP2 PUSH2 0x2E6 JUMP JUMPDEST DUP3 ADD SWAP2 SWAP1 PUSH0 MSTORE PUSH1 0x20 PUSH0 KECCAK256 SWAP1 JUMPDEST DUP2 SLOAD DUP2 MSTORE SWAP1 PUSH1 0x1 ADD SWAP1 PUSH1 0x20 ADD DUP1 DUP4 GT PUSH2 0x2C9 JUMPI DUP3 SWAP1 SUB PUSH1 0x1F AND DUP3 ADD SWAP2 JUMPDEST POP POP POP POP POP SWAP2 POP SWAP2 POP SWAP2 POP SWAP2 POP SWAP2 JUMP JUMPDEST PUSH0 DUP2 SWAP1 POP SWAP2 SWAP1 POP JUMP JUMPDEST PUSH2 0x308 DUP2 PUSH2 0x2F6 JUMP JUMPDEST DUP3 MSTORE POP POP JUMP JUMPDEST PUSH0 PUSH1 0x20 DUP3 ADD SWAP1 POP PUSH2 0x321 PUSH0 DUP4 ADD DUP5 PUSH2 0x2FF JUMP JUMPDEST SWAP3 SWAP2 POP POP JUMP JUMPDEST PUSH0 PUSH1 0x40 MLOAD SWAP1 POP SWAP1 JUMP JUMPDEST PUSH0 DUP1 REVERT JUMPDEST PUSH0 DUP1 REVERT JUMPDEST PUSH0 DUP1 REVERT JUMPDEST PUSH0 DUP1 REVERT JUMPDEST PUSH0 PUSH1 0x1F NOT PUSH1 0x1F DUP4 ADD AND SWAP1 POP SWAP2 SWAP1 POP JUMP JUMPDEST PUSH32 0x4E487B7100000000000000000000000000000000000000000000000000000000 PUSH0 MSTORE PUSH1 0x41 PUSH1 0x4 MSTORE PUSH1 0x24 PUSH0 REVERT JUMPDEST PUSH2 0x386 DUP3 PUSH2 0x340 JUMP JUMPDEST DUP2 ADD DUP2 DUP2 LT PUSH8 0xFFFFFFFFFFFFFFFF DUP3 GT OR ISZERO PUSH2 0x3A5 JUMPI PUSH2 0x3A4 PUSH2 0x350 JUMP JUMPDEST JUMPDEST DUP1 PUSH1 0x40 MSTORE POP POP POP JUMP JUMPDEST PUSH0 PUSH2 0x3B7 PUSH2 0x327 JUMP JUMPDEST SWAP1 POP PUSH2 0x3C3 DUP3 DUP3 PUSH2 0x37D JUMP JUMPDEST SWAP2 SWAP1 POP JUMP JUMPDEST PUSH0 PUSH8 0xFFFFFFFFFFFFFFFF DUP3 GT ISZERO PUSH2 0x3E2 JUMPI PUSH2 0x3E1 PUSH2 0x350 JUMP JUMPDEST JUMPDEST PUSH2 0x3EB DUP3 PUSH2 0x340 JUMP JUMPDEST SWAP1 POP PUSH1 0x20 DUP2 ADD SWAP1 POP SWAP2 SWAP1 POP JUMP JUMPDEST DUP3 DUP2 DUP4 CALLDATACOPY PUSH0 DUP4 DUP4 ADD MSTORE POP POP POP JUMP JUMPDEST PUSH0 PUSH2 0x418 PUSH2 0x413 DUP5 PUSH2 0x3C8 JUMP JUMPDEST PUSH2 0x3AE JUMP JUMPDEST SWAP1 POP DUP3 DUP2 MSTORE PUSH1 0x20 DUP2 ADD DUP5 DUP5 DUP5 ADD GT ISZERO PUSH2 0x434 JUMPI PUSH2 0x433 PUSH2 0x33C JUMP JUMPDEST JUMPDEST PUSH2 0x43F DUP5 DUP3 DUP6 PUSH2 0x3F8 JUMP JUMPDEST POP SWAP4 SWAP3 POP POP POP JUMP JUMPDEST PUSH0 DUP3 PUSH1 0x1F DUP4 ADD SLT PUSH2 0x45B JUMPI PUSH2 0x45A PUSH2 0x338 JUMP JUMPDEST JUMPDEST DUP2 CALLDATALOAD PUSH2 0x46B DUP5 DUP3 PUSH1 0x20 DUP7 ADD PUSH2 0x406 JUMP JUMPDEST SWAP2 POP POP SWAP3 SWAP2 POP POP JUMP JUMPDEST PUSH2 0x47D DUP2 PUSH2 0x2F6 JUMP JUMPDEST DUP2 EQ PUSH2 0x487 JUMPI PUSH0 DUP1 REVERT JUMPDEST POP JUMP JUMPDEST PUSH0 DUP2 CALLDATALOAD SWAP1 POP PUSH2 0x498 DUP2 PUSH2 0x474 JUMP JUMPDEST SWAP3 SWAP2 POP POP JUMP JUMPDEST PUSH0 DUP1 PUSH1 0x40 DUP4 DUP6 SUB SLT ISZERO PUSH2 0x4B4 JUMPI PUSH2 0x4B3 PUSH2 0x330 JUMP JUMPDEST JUMPDEST PUSH0 DUP4 ADD CALLDATALOAD PUSH8 0xFFFFFFFFFFFFFFFF DUP2 GT ISZERO PUSH2 0x4D1 JUMPI PUSH2 0x4D0 PUSH2 0x334 JUMP JUMPDEST JUMPDEST PUSH2 0x4DD DUP6 DUP3 DUP7 ADD PUSH2 0x447 JUMP JUMPDEST SWAP3 POP POP PUSH1 0x20 PUSH2 0x4EE DUP6 DUP3 DUP7 ADD PUSH2 0x48A JUMP JUMPDEST SWAP2 POP POP SWAP3 POP SWAP3 SWAP1 POP JUMP JUMPDEST PUSH0 PUSH1 0x20 DUP3 DUP5 SUB SLT ISZERO PUSH2 0x50D JUMPI PUSH2 0x50C PUSH2 0x330 JUMP JUMPDEST JUMPDEST PUSH0 PUSH2 0x51A DUP5 DUP3 DUP6 ADD PUSH2 0x48A JUMP JUMPDEST SWAP2 POP POP SWAP3 SWAP2 POP POP JUMP JUMPDEST PUSH0 DUP2 MLOAD SWAP1 POP SWAP2 SWAP1 POP JUMP JUMPDEST PUSH0 DUP3 DUP3 MSTORE PUSH1 0x20 DUP3 ADD SWAP1 POP SWAP3 SWAP2 POP POP JUMP JUMPDEST DUP3 DUP2 DUP4 MCOPY PUSH0 DUP4 DUP4 ADD MSTORE POP POP POP JUMP JUMPDEST PUSH0 PUSH2 0x555 DUP3 PUSH2 0x523 JUMP JUMPDEST PUSH2 0x55F DUP2 DUP6 PUSH2 0x52D JUMP JUMPDEST SWAP4 POP PUSH2 0x56F DUP2 DUP6 PUSH1 0x20 DUP7 ADD PUSH2 0x53D JUMP JUMPDEST PUSH2 0x578 DUP2 PUSH2 0x340 JUMP JUMPDEST DUP5 ADD SWAP2 POP POP SWAP3 SWAP2 POP POP JUMP JUMPDEST PUSH0 PUSH1 0x40 DUP3 ADD SWAP1 POP DUP2 DUP2 SUB PUSH0 DUP4 ADD MSTORE PUSH2 0x59B DUP2 DUP6 PUSH2 0x54B JUMP JUMPDEST SWAP1 POP PUSH2 0x5AA PUSH1 0x20 DUP4 ADD DUP5 PUSH2 0x2FF JUMP JUMPDEST SWAP4 SWAP3 POP POP POP JUMP JUMPDEST PUSH32 0x4E487B7100000000000000000000000000000000000000000000000000000000 PUSH0 MSTORE PUSH1 0x22 PUSH1 0x4 MSTORE PUSH1 0x24 PUSH0 REVERT JUMPDEST PUSH0 PUSH1 0x2 DUP3 DIV SWAP1 POP PUSH1 0x1 DUP3 AND DUP1 PUSH2 0x5F5 JUMPI PUSH1 0x7F DUP3 AND SWAP2 POP JUMPDEST PUSH1 0x20 DUP3 LT DUP2 SUB PUSH2 0x608 JUMPI PUSH2 0x607 PUSH2 0x5B1 JUMP JUMPDEST JUMPDEST POP SWAP2 SWAP1 POP JUMP JUMPDEST PUSH0 DUP2 SWAP1 POP DUP2 PUSH0 MSTORE PUSH1 0x20 PUSH0 KECCAK256 SWAP1 POP SWAP2 SWAP1 POP JUMP JUMPDEST PUSH0 PUSH1 0x20 PUSH1 0x1F DUP4 ADD DIV SWAP1 POP SWAP2 SWAP1 POP JUMP JUMPDEST PUSH0 DUP3 DUP3 SHL SWAP1 POP SWAP3 SWAP2 POP POP JUMP JUMPDEST PUSH0 PUSH1 0x8 DUP4 MUL PUSH2 0x66A PUSH32 0xFFFFFFFFFFFFFFFFFFFFFFFFFFFFFFFFFFFFFFFFFFFFFFFFFFFFFFFFFFFFFFFF DUP3 PUSH2 0x62F JUMP JUMPDEST PUSH2 0x674 DUP7 DUP4 PUSH2 0x62F JUMP JUMPDEST SWAP6 POP DUP1 NOT DUP5 AND SWAP4 POP DUP1 DUP7 AND DUP5 OR SWAP3 POP POP POP SWAP4 SWAP3 POP POP POP JUMP JUMPDEST PUSH0 DUP2 SWAP1 POP SWAP2 SWAP1 POP JUMP JUMPDEST PUSH0 PUSH2 0x6AF PUSH2 0x6AA PUSH2 0x6A5 DUP5 PUSH2 0x2F6 JUMP JUMPDEST PUSH2 0x68C JUMP JUMPDEST PUSH2 0x2F6 JUMP JUMPDEST SWAP1 POP SWAP2 SWAP1 POP JUMP JUMPDEST PUSH0 DUP2 SWAP1 POP SWAP2 SWAP1 POP JUMP JUMPDEST PUSH2 0x6C8 DUP4 PUSH2 0x695 JUMP JUMPDEST PUSH2 0x6DC PUSH2 0x6D4 DUP3 PUSH2 0x6B6 JUMP JUMPDEST DUP5 DUP5 SLOAD PUSH2 0x63B JUMP JUMPDEST DUP3 SSTORE POP POP POP POP JUMP JUMPDEST PUSH0 SWAP1 JUMP JUMPDEST PUSH2 0x6F0 PUSH2 0x6E4 JUMP JUMPDEST PUSH2 0x6FB DUP2 DUP5 DUP5 PUSH2 0x6BF JUMP JUMPDEST POP POP POP JUMP JUMPDEST JUMPDEST DUP2 DUP2 LT ISZERO PUSH2 0x71E JUMPI PUSH2 0x713 PUSH0 DUP3 PUSH2 0x6E8 JUMP JUMPDEST PUSH1 0x1 DUP2 ADD SWAP1 POP PUSH2 0x701 JUMP JUMPDEST POP POP JUMP JUMPDEST PUSH1 0x1F DUP3 GT ISZERO PUSH2 0x763 JUMPI PUSH2 0x734 DUP2 PUSH2 0x60E JUMP JUMPDEST PUSH2 0x73D DUP5 PUSH2 0x620 JUMP JUMPDEST DUP2 ADD PUSH1 0x20 DUP6 LT ISZERO PUSH2 0x74C JUMPI DUP2 SWAP1 POP JUMPDEST PUSH2 0x760 PUSH2 0x758 DUP6 PUSH2 0x620 JUMP JUMPDEST DUP4 ADD DUP3 PUSH2 0x700 JUMP JUMPDEST POP POP JUMPDEST POP POP POP JUMP JUMPDEST PUSH0 DUP3 DUP3 SHR SWAP1 POP SWAP3 SWAP2 POP POP JUMP JUMPDEST PUSH0 PUSH2 0x783 PUSH0 NOT DUP5 PUSH1 0x8 MUL PUSH2 0x768 JUMP JUMPDEST NOT DUP1 DUP4 AND SWAP2 POP POP SWAP3 SWAP2 POP POP JUMP JUMPDEST PUSH0 PUSH2 0x79B DUP4 DUP4 PUSH2 0x774 JUMP JUMPDEST SWAP2 POP DUP3 PUSH1 0x2 MUL DUP3 OR SWAP1 POP SWAP3 SWAP2 POP POP JUMP JUMPDEST PUSH2 0x7B4 DUP3 PUSH2 0x523 JUMP JUMPDEST PUSH8 0xFFFFFFFFFFFFFFFF DUP2 GT ISZERO PUSH2 0x7CD JUMPI PUSH2 0x7CC PUSH2 0x350 JUMP JUMPDEST JUMPDEST PUSH2 0x7D7 DUP3 SLOAD PUSH2 0x5DE JUMP JUMPDEST PUSH2 0x7E2 DUP3 DUP3 DUP6 PUSH2 0x722 JUMP JUMPDEST PUSH0 PUSH1 0x20 SWAP1 POP PUSH1 0x1F DUP4 GT PUSH1 0x1 DUP2 EQ PUSH2 0x813 JUMPI PUSH0 DUP5 ISZERO PUSH2 0x801 JUMPI DUP3 DUP8 ADD MLOAD SWAP1 POP JUMPDEST PUSH2 0x80B DUP6 DUP3 PUSH2 0x790 JUMP JUMPDEST DUP7 SSTORE POP PUSH2 0x872 JUMP JUMPDEST PUSH1 0x1F NOT DUP5 AND PUSH2 0x821 DUP7 PUSH2 0x60E JUMP JUMPDEST PUSH0 JUMPDEST DUP3 DUP2 LT ISZERO PUSH2 0x848 JUMPI DUP5 DUP10 ADD MLOAD DUP3 SSTORE PUSH1 0x1 DUP3 ADD SWAP2 POP PUSH1 0x20 DUP6 ADD SWAP5 POP PUSH1 0x20 DUP2 ADD SWAP1 POP PUSH2 0x823 JUMP JUMPDEST DUP7 DUP4 LT ISZERO PUSH2 0x865 JUMPI DUP5 DUP10 ADD MLOAD PUSH2 0x861 PUSH1 0x1F DUP10 AND DUP3 PUSH2 0x774 JUMP JUMPDEST DUP4 SSTORE POP JUMPDEST PUSH1 0x1 PUSH1 0x2 DUP9 MUL ADD DUP9 SSTORE POP POP POP JUMPDEST POP POP POP POP POP POP JUMP JUMPDEST PUSH32 0x53747564656E74206E6F7420666F756E64000000000000000000000000000000 PUSH0 DUP3 ADD MSTORE POP JUMP JUMPDEST PUSH0 PUSH2 0x8AE PUSH1 0x11 DUP4 PUSH2 0x52D JUMP JUMPDEST SWAP2 POP PUSH2 0x8B9 DUP3 PUSH2 0x87A JUMP JUMPDEST PUSH1 0x20 DUP3 ADD SWAP1 POP SWAP2 SWAP1 POP JUMP JUMPDEST PUSH0 PUSH1 0x20 DUP3 ADD SWAP1 POP DUP2 DUP2 SUB PUSH0 DUP4 ADD MSTORE PUSH2 0x8DB DUP2 PUSH2 0x8A2 JUMP JUMPDEST SWAP1 POP SWAP2 SWAP1 POP JUMP JUMPDEST PUSH32 0x4E487B7100000000000000000000000000000000000000000000000000000000 PUSH0 MSTORE PUSH1 0x32 PUSH1 0x4 MSTORE PUSH1 0x24 PUSH0 REVERT INVALID LOG2 PUSH5 0x6970667358 0x22 SLT KECCAK256 SWAP11 LOG0 AND 0x2B PUSH6 0x4D59EF7C5A44 PUSH6 0x3A412D7C61AE 0xE2 0xED STATICCALL 0x2C 0xAD DIV PUSH26 0x4CA9FF6D4A2A2364736F6C634300081A00330000000000000000 "
				},
				"gasEstimates": {
					"creation": {
						"codeDepositCost": "474600",
						"executionCost": "509",
						"totalCost": "475109"
					},
					"external": {
						"": "1698",
						"addStudent(string,uint256)": "infinite",
						"getStudent(uint256)": "infinite",
						"getStudentCount()": "2440"
					}
				},
				"methodIdentifiers": {
					"addStudent(string,uint256)": "0e5eeef7",
					"getStudent(uint256)": "642f9163",
					"getStudentCount()": "41e0c407"
				}
			},
			"storageLayout": {
				"storage": [
					{
						"astId": 10,
						"contract": "student.sol:StudentRegistry",
						"label": "students",
						"offset": 0,
						"slot": "0",
						"type": "t_array(t_struct(Student)6_storage)dyn_storage"
					}
				],
				"types": {
					"t_array(t_struct(Student)6_storage)dyn_storage": {
						"base": "t_struct(Student)6_storage",
						"encoding": "dynamic_array",
						"label": "struct StudentRegistry.Student[]",
						"numberOfBytes": "32"
					},
					"t_string_storage": {
						"encoding": "bytes",
						"label": "string",
						"numberOfBytes": "32"
					},
					"t_struct(Student)6_storage": {
						"encoding": "inplace",
						"label": "struct StudentRegistry.Student",
						"members": [
							{
								"astId": 3,
								"contract": "student.sol:StudentRegistry",
								"label": "name",
								"offset": 0,
								"slot": "0",
								"type": "t_string_storage"
							},
							{
								"astId": 5,
								"contract": "student.sol:StudentRegistry",
								"label": "age",
								"offset": 0,
								"slot": "1",
								"type": "t_uint256"
							}
						],
						"numberOfBytes": "64"
					},
					"t_uint256": {
						"encoding": "inplace",
						"label": "uint256",
						"numberOfBytes": "32"
					}
				}
			},
			"userdoc": {
				"kind": "user",
				"methods": {},
				"version": 1
			}
		}
	}
}